:100000000C945C000C9479000C9479000C947900A9
:100010000C9479000C9479000C9479000C9479007C
:100020000C9479000C9479000C9479000C9479006C
:100030000C9479000C9479000C9479000C9479005C
:100040000C9441010C9479000C9479000C94790083
:100050000C9479000C9479000C9479000C9479003C
:100060000C9479000C947900000000080002010053
:100070000003040700000000000000000000000072
:10008000250028002B0000000000240027002A0083
:10009000040404040404040402020202020203032E
:1000A0000303030301020408102040800102040836
:1000B000102001020408102011241FBECFEFD8E049
:1000C000DEBFCDBF11E0A0E0B1E0EEEEF4E002C093
:1000D00005900D92A430B107D9F721E0A4E0B1E07A
:1000E00001C01D92A331B207E1F70E948B010C946D
:1000F00075020C94000090E0FC01EC55FF4F249138
:1001000080579F4FFC018491882399F090E0880FDD
:10011000991FFC01EA57FF4FA591B491FC01E458E7
:10012000FF4F859194918FB7F894EC91E22BEC936B
:100130008FBF089590E0FC01E859FF4F2491FC0126
:10014000EC55FF4F3491FC01E057FF4FE491EE2353
:10015000C9F0222339F0233001F1A8F4213019F13C
:10016000223029F1F0E0EE0FFF1FE458FF4FA59178
:10017000B4918FB7F894EC91611126C030953E236D
:100180003C938FBF08952730A9F02830C9F0243060
:1001900049F7809180008F7D03C0809180008F7728
:1001A00080938000DFCF84B58F7784BDDBCF84B5AB
:1001B0008F7DFBCF8091B0008F778093B000D2CF3E
:1001C0008091B0008F7DF9CF3E2BDACF3FB7F89406
:1001D00080910F0190911001A0911101B091120135
:1001E00026B5A89B05C02F3F19F00196A11DB11D92
:1001F0003FBFBA2FA92F982F8827BC01CD01620FCE
:10020000711D811D911D42E0660F771F881F991F88
:100210004A95D1F708958F929F92AF92BF92CF9255
:10022000DF92EF92FF920E94E6004B015C0184EFA7
:10023000C82EDD24D394E12CF12C0E94E60068192D
:1002400079098A099B09683E734081059105A8F3E5
:1002500021E0C21AD108E108F10888EE880E83E097
:10026000981EA11CB11CC114D104E104F10429F7AA
:10027000FF90EF90DF90CF90BF90AF909F908F90C6
:1002800008951F920F920FB60F9211242F933F9350
:100290008F939F93AF93BF9380910B0190910C012B
:1002A000A0910D01B0910E0130910A0123E0230FBE
:1002B0002D3758F50196A11DB11D20930A01809399
:1002C0000B0190930C01A0930D01B0930E0180914E
:1002D0000F0190911001A0911101B09112010196AE
:1002E000A11DB11D80930F0190931001A0931101E6
:1002F000B0931201BF91AF919F918F913F912F9138
:100300000F900FBE0F901F90189526E8230F0296AE
:10031000A11DB11DD2CF789484B5826084BD84B50F
:10032000816084BD85B5826085BD85B5816085BDF0
:1003300080916E00816080936E00109281008091A8
:100340008100826080938100809181008160809330
:100350008100809180008160809380008091B10055
:1003600084608093B1008091B00081608093B00080
:1003700080917A00846080937A0080917A00826014
:1003800080937A0080917A00816080937A008091D6
:100390007A00806880937A001092C10088E00E9401
:1003A0007B0082E00E947B0083E00E947B0061E092
:1003B00088E00E949A0061E082E00E949A0060E07A
:1003C00083E00E949A002FB7F89480910B019091DE
:1003D0000C01A0910D01B0910E012FBF8093060179
:1003E00090930701A0930801B0930901C0E0D0E009
:1003F00088E9C82E8AE3D82EE12CF12C01E010E028
:1004000090E1892E97E2992EA12CB12C61E088E031
:100410000E949A000E940B0160E088E00E949A000E
:100420000E940B012FB7F89480910B0190910C0161
:10043000A0910D01B0910E012FBF40910601509186
:10044000070160910801709109012C013D01441AD6
:10045000550A660A770A40910001509101016091A6
:10046000020170910301441655066606770610F1E5
:100470008093060190930701A0930801B0930901AE
:100480008091040190910501892BD1F460E082E014
:100490000E949A0061E083E00E949A001093050197
:1004A000009304018092000190920101A092020148
:1004B000B0920301209709F4A9CF0E940000A6CFB3
:1004C00061E082E00E949A0060E083E00E949A006E
:1004D0001092050110920401C0920001D092010116
:0E04E000E0920201F0920301E5CFF894FFCF05
:0404EE00983A000038
:00000001FF
