:100000000C944E010C947F010C947F010C947F01A1
:100010000C947F010C947F010C947F010C947F0160
:100020000C947F010C947F010C947F010C947F0150
:100030000C947F010C947F010C947F010C947F0140
:100040000C947F010C94470D0C947F010C947F015C
:100050000C947F010C947F010C947F010C94730C21
:100060000C947F010C943D0C0C94130C0C947F01A8
:100070000C947F010C947F010C947F010C947F0100
:100080000C94190D0C947F010C947F010C947F014A
:100090000C94DD0B0C94B30B0C947F010C94750D38
:1000A0000C947F010C947F010C94EB0C0C947F0159
:1000B0000C947F010C947F010C947F010C94BD0C77
:1000C0000C947F010C947F010C947F010C947F01B0
:1000D0000C947F010C947F010C947F010C947F01A0
:1000E0000C947F010C9415060C943D020C94A00214
:1000F0000C94D1030C94BA030C9442060C94C703DD
:100100000C94D5030C94C3030C940E020C941002AF
:100110000C94990E0C94DF030C94B2030C94EC0530
:100120000C94E8030C940E060C943D030C94AE0260
:100130000C94FB050C9458070C94EE180C94A8032F
:100140000C94F0020C940D020C94C7070C94E3037A
:100150000C94EB050C94DB030C944C020C94ED0313
:100160000C94BD030C94AE030C94CD030C940F02BD
:100170000C94E9030C94B60300002100240027002E
:100180002A002D00300033000101000004010701A6
:100190000A0100002200250028002B002E0031005B
:1001A000340002010000050108010B0100002000DD
:1001B0002300260029002C002F003200000100003F
:1001C00003010601090105050505070508080808DA
:1001D000020202020A0A08080404040401010101DF
:1001E00001010101030303030303030304070707DA
:1001F0000C0C0C0C0C0C0C0C02020202060606067F
:10020000060606060B0B0B0B0B0B0B0B010210204B
:10021000200808102040102040800201020108043C
:1002200002010102040810204080804020100804D0
:100230000201800402018040201008040201080429
:10024000020101020408102040800102040810206D
:10025000408000000A0B02090C0D0E080703040180
:10026000000000000000000000000000000000008E
:10027000000000000000000000000000000012115B
:10028000100000000000000000000000000000005E
:100290000000000000000000990EEE1811241FBE9F
:1002A000CFEFD1E2DEBFCDBF00E00CBF14E0A0E095
:1002B000B2E0EEEFF7E300E00BBF02C007900D9253
:1002C000A439B107D9F727E0A4E9B4E001C01D9231
:1002D000A839B207E1F711E0CDE4D1E000E006C0B3
:1002E00021970109802FFE010E948719CC34D10784
:1002F00080E00807A9F70E94640F0C94ED1B0C9492
:100300000000FC01A089B18982E08C93A485B585A9
:100310001C92A685B7858FEC8C93108EA489B58925
:1003200086E08C93A289B3898C9180618C93A28999
:10033000B3898C9188608C93A289B3898C918068F1
:100340008C930288F389E02D80818F7D80830895CE
:100350008F929F92AF92BF92FF920F931F93CF9372
:10036000DF93F09085072FE22F1508F44CC0209101
:10037000870708E512E0021B110927FD1395000FFE
:10038000111F000F111F20918607C8E8D0E0C21B83
:10039000D10927FDD395CC0FDD1FCC0FDD1F4E01FA
:1003A0000D2E000CAA08BB089801012E000C440B6E
:1003B000550B281939094A095B09DC010E944219C9
:1003C00024EB30E040E050E00E941819820E931EAA
:1003D000A41EB51E8C169D062CF0E8018016910611
:1003E0000CF4E4012297CC0FDD1F2FB7F8948F2D6A
:1003F00090E0FC01EE0FFF1FE80FF91FE851F94FE5
:10040000D283C1832FBFDF91CF911F910F91FF90B6
:10041000BF90AF909F908F9008950895089508958C
:10042000AF92BF92CF92DF92EF92FF920F931F9302
:10043000CF93DF936C017B018B01040F151FEB0140
:100440005E01AE18BF08C017D10759F06991D601F7
:10045000ED91FC910190F081E02DC6011995892B59
:1004600079F7C501DF91CF911F910F91FF90EF9028
:10047000DF90CF90BF90AF900895FC01538D448DD5
:10048000252F30E0842F90E0821B930B541710F03F
:10049000CF96089501970895FC01918D828D98174C
:1004A00061F0A28DAE0FBF2FB11D5D968C91928D24
:1004B0009F5F9F73928F90E008958FEF9FEF089555
:1004C0002FB7F89480919E0590919F05A091A0056B
:1004D000B091A1052FBF8093AA059093AB05A0937F
:1004E000AC05B093AD0582EA95E00E944C0297FFFF
:1004F00026C02FB7F89480919E0590919F05A091FA
:10050000A005B091A1052FBF4091AA055091AB0560
:100510006091AC057091AD05841B950BA60BB70BD4
:100520004091A6055091A7056091A8057091A90575
:1005300084179507A607B707B0F28FEF9FEF0895CE
:10054000FC01918D828D981731F0828DE80FF11D9D
:10055000858D90E008958FEF9FEF0895FC01918DB8
:10056000228D892F90E0805C9F4F821B91098F73B1
:100570009927089582EA95E00E94AE0221E0892B36
:1005800009F420E0822F08958FE396E00E94AE02E6
:1005900021E0892B09F420E0822F0895FC01A48D2D
:1005A000A80FB92FB11DA35ABF4F2C91848D90E095
:1005B00001968F739927848FA689B7892C93A08978
:1005C000B1898C91837080648C93938D848D981302
:1005D00006C00288F389E02D80818F7D8083089595
:1005E000EF92FF920F931F93CF93DF93EC0181E083
:1005F000888F9B8D8C8D98131AC0E889F98980812A
:1006000085FF15C09FB7F894EE89FF896083E8895C
:10061000F98980818370806480839FBF81E090E04E
:10062000DF91CF911F910F91FF90EF900895F62EDB
:100630000B8D10E00F5F1F4F0F731127E02E8C8D75
:100640008E110CC00FB607FCFACFE889F9898081BA
:1006500085FFF5CFCE010E94CE02F1CFEB8DEC0FDE
:10066000FD2FF11DE35AFF4FF0829FB7F8940B8FD7
:10067000EA89FB8980818062CFCFCF93DF93EC0141
:10068000888D8823B9F0AA89BB89E889F9898C917A
:1006900085FD03C0808186FD0DC00FB607FCF7CF36
:1006A0008C9185FFF2CF808185FFEDCFCE010E9436
:1006B000CE02E9CFDF91CF91089580E090E0892BC1
:1006C00029F00E94C40281110E94000080E090E0A5
:1006D000892B29F00E94BA0281110E94000080E05B
:1006E00090E0892B49F080E090E0892B29F00E946E
:1006F000000081110E94000080E090E0892B49F009
:1007000080E090E0892B29F00E94000081110C9478
:10071000000008958150823108F05AC0E82FF0E0BF
:100720008827EA56FC4F8F4F0C948719B603BA03FB
:10073000A803AE03B203E803BD03C303C703CD039D
:10074000D103D503DB03DF03E803E303E903ED0390
:10075000809180008F778093800008958091800041
:100760008F7DF9CF80918000877FF5CF84B58F771B
:1007700084BD089584B58F7DFBCF8091B0008F77C5
:100780008093B00008958091B0008F7DF9CF809163
:1007900090008F77809390000895809190008F7DD6
:1007A000F9CF80919000877FF5CF8091A0008F775F
:1007B0008093A00008958091A0008F7DF9CF809153
:1007C000A000877FF5CF809120018F778093200153
:1007D0000895809120018F7DF9CF80912001877F3E
:1007E000F5CFCF93DF93E9E5F2E08491E3E1F2E026
:1007F000D491EDECF1E0C491CC23A1F081110E94E1
:100800008A03EC2FF0E0EE0FFF1FE455FE4FA59199
:10081000B491EC91ED2381E090E009F480E0DF9168
:10082000CF91089580E090E0FACF1F93CF93DF93AC
:10083000282F30E0F901EE5AFD4F8491F901E45F71
:10084000FD4FD491F901EA53FE4FC491CC23A9F096
:10085000162F81110E948A03EC2FF0E0EE0FFF1F8C
:10086000EE56FE4FA591B4918FB7F894EC9111110B
:1008700008C0D095DE23DC938FBFDF91CF911F910D
:100880000895DE2BF8CFCF93DF9390E0FC01E45F77
:10089000FD4F24918A539E4FFC0184918823D1F00F
:1008A00090E0880F991FFC01E858FE4FA591B49184
:1008B000FC01EE56FE4FC591D491623071F49FB7A2
:1008C000F8943C91822F809583238C93E8812E2B82
:1008D00028839FBFDF91CF9108958FB7F894EC9153
:1008E0002E2B2C938FBFF6CF3FB7F89480914B05FA
:1008F00090914C05A0914D05B0914E0526B5A89B51
:1009000005C02F3F19F00196A11DB11D3FBFBA2FA1
:10091000A92F982F8827BC01CD01620F711D811D61
:10092000911D42E0660F771F881F991F4A95D1F7E6
:1009300008958F929F92AF92BF92CF92DF92EF92E3
:10094000FF924B015C010E9474046B017C010E94C8
:1009500074046C197D098E099F09683E73408105F6
:100960009105A8F321E0821A9108A108B10888EE48
:10097000C80E83E0D81EE11CF11C81149104A1046F
:10098000B10429F7FF90EF90DF90CF90BF90AF9028
:100990009F908F900895AF92BF92CF92DF92EF9287
:1009A000FF920F931F93CF93DF936B017A01EC01BA
:1009B000CA5BDA4F28813CE0389F8001399F100DD7
:1009C0001124A0907807B12C27FF1FC0FB011182D2
:1009D000108288818F5F888388819801280F311D5C
:1009E00087FD3A95F6012A153B051CF488818C3069
:1009F000C4F180819181049680349C4908F473C0CD
:100A0000F60180819181049670C088819801280F39
:100A1000311D87FD3A952A153B05DCF68881A80132
:100A2000480F511D87FD5A95FA01EE0FFF1FE40F85
:100A3000F51FE851F94F808186FFCBCF8881F801FF
:100A4000E80FF11D87FDFA95CF01EE0FFF1FE80FAC
:100A5000F91FE851F94F808160E08F730E941504FF
:100A6000B8CF808191812881A801420F511D27FDB7
:100A70005A959A01FA01EE0FFF1FE20FF31FE8519A
:100A8000F94F21813281820F931FF7019183808377
:100A900088819801280F311D87FD3A95F901EE0FE5
:100AA000FF1FE20FF31FE851F94F808186FF22C03C
:100AB0008881080F111D87FD1A95F801EE0FFF1FA1
:100AC000E00FF11FE851F94F808161E08F73DF91F2
:100AD000CF911F910F91FF90EF90DF90CF90BF903B
:100AE000AF900C94150480E49CE9F7019183808316
:100AF0008FEF8883DF91CF911F910F91FF90EF903F
:100B0000DF90CF90BF90AF9008952091D504260F2D
:100B10003327331F21323105ECF420911E05FC01EF
:100B200090E080E0243069F082E00895A091D5043F
:100B30002191AC014B545B4FA40FB52FB11D2C93E9
:100B40000196861798F38091D504680F6093D504B9
:100B500080E0089581E0089510921E0581E0809361
:100B60001D051092F80461E084E10E94150461E023
:100B700085E10E941504E9EBF0E080818E7F80839F
:100B800080818D7F808388E48093B80085E48093A2
:100B9000BC000895CF93DF9391E09093B404882331
:100BA000B9F0C091B800D091BA008091BC008A7BA6
:100BB0008093BC0060E084E10E94150460E085E160
:100BC0000E9415040E94AC05D093BA00C093B800EF
:100BD000DF91CF9108950895E091560580915505D4
:100BE000E81730F4F0E0EC56FB4F808190E0089578
:100BF0008FEF9FEF089590915605809155052FEF47
:100C00003FEF981748F4E92FF0E0EC56FB4F2081B6
:100C100030E09F5F90935605C90108958091550576
:100C200090915605891B990B0895CF92DF92EF9210
:100C3000FF920F931F93CF93DF937C01CB018A0127
:100C400020912405222389F0EB016B01C40ED51EEF
:100C5000CC15DD0569F06991D701ED91FC9101900A
:100C6000F081E02DC7011995F3CF642F0E9485050F
:100C7000C801DF91CF911F910F91FF90EF90DF900E
:100C8000CF900895CF93DF931F92CDB7DEB76983DE
:100C9000209124052223F9F020915305203258F0A9
:100CA00021E030E0FC013383228390E080E00F906C
:100CB000DF91CF91089580915405E82FF0E0EB5D2E
:100CC000FA4F998190838F5F8093540580935305E9
:100CD00081E090E0ECCF61E0CE0101960E948505B5
:100CE000F7CFCF92DF92EF92FF920F931F93CF93A4
:100CF000DF93FC01C48121E020932405C0934505C6
:100D000010925405109253058385682B8CED96E064
:100D10000E944206D0915305D13208F092C00E9441
:100D200074046B017C0180911E05811165C082E015
:100D300080931E0581E080931D058FEF80931C0535
:100D400010921B05D0931A05A5E2B5E0EAEFF4E096
:100D500080E0D81385C01092F9048091F904CC0F7B
:100D6000C82BC093F9048091F804813009F07CC04D
:100D70001092F8040E9474046B017C018091F904C4
:100D80008093BB008091200590912105A0912205C0
:100D9000B0912305892B8A2B8B2B99F00E94740428
:100DA0000091200510912105209122053091230505
:100DB0006C197D098E099F0906171707280739073F
:100DC000E0F18091BC0083FDD9CF85EC8093BC001D
:100DD0000E9474046B017C0180911E05823009F42D
:100DE00045C080911C058F3F61F180911C058032C8
:100DF00041F180911C0525C080912005909121052D
:100E0000A0912205B0912305892B8A2B8B2B09F405
:100E10008ACF0E9474040091200510912105209131
:100E20002205309123056C197D098E099F0906174B
:100E300017072807390708F076CF80911F050E9411
:100E4000CA05109254051092530510922405DF91A3
:100E5000CF911F910F91FF90EF90DF90CF90089569
:100E60009D9191938F5F75CF85EEB0CF80912005D6
:100E700090912105A0912205B0912305892B8A2B01
:100E80008B2B09F4A9CF0E947404009120051091C6
:100E9000210520912205309123056C197D098E09C9
:100EA0009F09061717072807390708F095CFC5CF00
:100EB00090E080E008950F931F93CF938C01C62F8D
:100EC0000E9471066C2F6460C8010E9471066C2F2D
:100ED0006B7FC8010E94710683EC90E00197F1F7E7
:100EE000CF911F910F9108950F931F93CF93DF938D
:100EF0008C01D62FC42F607F642B0E945B0780E19A
:100F0000D89FB00111246C2BC801DF91CF911F91A4
:100F10000F910C945B07CF93DF9300D000D01F920A
:100F20001F92CDB7DEB788E0E8E0F2E0DE0111966F
:100F300001900D928A95E1F78091900781111AC076
:100F40008FEF90E0880F991F21E030E02C0F3D1FBC
:100F5000820F931FFC016081606840E088E897E0A1
:100F600028960FB6F894DEBF0FBECDBFDF91CF91AC
:100F70000C94740781E0E5CF40E061E088E897E0F9
:100F80000E9474078BE39FE10197F1F7089541E018
:100F90000E94740781E090E00895CF93DF93EC0105
:100FA00088819981009711F00E942B1A198218826A
:100FB0001D821C821B821A82DF91CF910895FC0151
:100FC00080819181009711F00C942B1A0895EF9273
:100FD000FF920F931F93CF93DF938617970769F1C3
:100FE000FC0124813581FB0144815581241735079B
:100FF000E1F4232B11F1FC0100811181FB01C0817F
:10100000D181F80181918F018823B9F0082E000C5D
:10101000990B0E94951B7C018991082E000C990B5D
:101020000E94951BE816F90661F380E0DF91CF91ED
:101030001F910F91FF90EF90089581E0F7CFFC0191
:1010400024813581232B39F421E0FB018081882321
:1010500049F020E007C0808191810E94A61B21E019
:10106000892BB9F7822F08950F931F93CF93DF93A6
:101070008C01EB01FC01808191810097E1F0688196
:10108000798161157105A9F0428153812C813D81DF
:101090004217530770F00E94AF1B8C819D81F801AD
:1010A000958384831D821C82DF91CF911F910F91C4
:1010B00008950E942B1A88819981F8019183808379
:1010C0008A819B81938382838C819D819583848394
:1010D000198218821B821A82E5CFFF920F931F9309
:1010E000CF93DF93EC01F62E08811981C8010E948D
:1010F0000219F81621F06F2DC8010E940A19CE01BD
:10110000DF91CF911F910F91FF9008958F929F9241
:10111000AF92BF92CF92DF92EF92FF920F931F9305
:10112000CF93DF931F921F92CDB7DEB78C016A89F0
:101130009A838983CE0101960E946D086F8DC80144
:1011400001969A838983CE0101960E946D087E01E3
:1011500020E2E20EF11CCE0142965C014E0190E3CA
:10116000890E911CC8018A199B099C012D503109D7
:101170006901F70161917F01C6018E0F9F1F9A835C
:101180008983CE0101960E946D08E814F90489F75D
:101190007E01F3E1EF0EF11C65012DE0C20ED11CC2
:1011A0000A191B090F5E1F4FF70161917F01C801EA
:1011B0008E0F9F1F9A838983CE0101960E946D082E
:1011C000EC14FD0489F70F900F90DF91CF911F91E0
:1011D0000F91FF90EF90DF90CF90BF90AF909F90D6
:1011E0008F900895CF92DF92EF92FF920F931F930B
:1011F000CF93DF93EC010E94021991E0813009F056
:1012000090E090937F05CE0101960E940219809391
:101210008C050DE815E09DE9E92E95E0F92ECE014B
:101220008B5895406C01C601800F911F0E940219D6
:10123000F80181938F01EE16FF06A9F710929D0524
:1012400000E815E08CE8E82E85E0F82ECD56D54074
:10125000CE01800F911F0E94021991E0813009F0A8
:1012600090E0F80191938F01EE16FF0689F7DF9168
:10127000CF911F910F91FF90EF90DF90CF90089545
:10128000FB0101900020E9F73197AF01461B570B96
:10129000DC01ED91FC910280F381E02D1994BC01F9
:1012A00088E897E00C9440090E94BC0780918D0566
:1012B000882321F08DE895E00C944F096EE572E0EB
:1012C0008FE797E00E941F08882349F088E592E0A5
:1012D0000E944F090E948B0785E692E0EDCF6AE7F6
:1012E00072E08FE797E00E941F08882349F084E7A7
:1012F00092E00E944F090E948B0783E892E0DCCFC6
:1013000069E972E08FE797E00E941F08882319F0CF
:1013100083E992E0EECF6FE972E08FE797E00E94F9
:101320001F08882349F08DEA92E00E944F090E942D
:101330008B0787EB92E0C0CF6FEB72E08FE797E00F
:101340000E941F08882349F08BEC92E00E944F090D
:101350000E948B0786ED92E0AFCF8FED92E00E9466
:101360004F090E948B0786EE92E0A6CF0F931F9342
:10137000CF93DF93EC010E9440098C0164EF72E08F
:10138000CE010E944009800F911FDF91CF911F91E4
:101390000F9108950F931F93CF93DF93EC01FB01FF
:1013A00044815581608171810E9410028C0164EF3B
:1013B00072E0CE010E944009800F911FDF91CF9112
:1013C0001F910F910895AF92BF92CF92DF92EF924B
:1013D000FF920F931F93CF93DF93DC01CD90DC90AE
:1013E0001197C114D10439F01496CD91DC918C0180
:1013F0007601209761F4DF91CF911F910F91FF90BB
:10140000EF90DF90CF90BF90AF9008957501570196
:10141000BFEFAB1ABB0AF7018081082E000C990BB5
:101420000E94F618892B91F72197CC0DDD1D88813C
:10143000082E000C990B0E94F618892B29F0CE1566
:10144000DF0510F02197F3CFAE014F5F5F4F4E19CC
:101450005F09D80115965C934E931497CE14DF0460
:1014600020F4B701C6010E949D1BD801ED91FC91AB
:10147000119714968D919C91E80FF91F1082BBCFA4
:10148000CF93DF93DC0114962D913C911597232B7C
:1014900079F0FB01CD91DC9160817181CE010E94D8
:1014A000D31B009729F08C1B9D0BDF91CF910895E2
:1014B0008FEF9FEFFACFFB0144815581FC0124811E
:1014C00035812417350778F080819181009759F094
:1014D000FB01608171816115710529F00E94B61BC5
:1014E00021E0892B09F020E0822F08950F931F93AC
:1014F000CF93DF93EC0188819981009759F02A817D
:101500003B812617370730F081E0DF91CF911F91A3
:101510000F9108958B016F5F7F4F0E94B41A00975F
:1015200059F0998388831B830A832C813D81232B67
:1015300059F7FC011082E8CF80E0E7CFEF92FF92ED
:101540000F931F93CF93DF936115710541F480E0F2
:10155000DF91CF911F910F91FF90EF90089541156A
:101560005105B1F07B01EC010C811D81040F151FA9
:10157000B8010E94760A882351F3288139818C8131
:101580009D81B701820F931F0E94AF1B1D830C83A7
:1015900081E0DECFCF93DF93EC01FB0101900020CF
:1015A000E9F73197AF01461B570B0E949E0A811144
:1015B00003C0CE010E94CD07CE01DF91CF910895E7
:1015C000CF93DF93EC01FB014481558160817181F0
:1015D0000E949E0A811103C0CE010E94CD07CE0158
:1015E000DF91CF910895EF92FF920F931F93CF93C6
:1015F000DF93EC017B018A01BA010E94760A811116
:101600000BC0CE010E94CD07CE01DF91CF911F917B
:101610000F91FF90EF9008951D830C83B70188818F
:1016200099810E94AF1BF0CFFB0101900020E9F7E8
:101630003197AF01461B570B0C94F30AFC01118242
:1016400010821382128215821482FB010190002005
:10165000E9F73197AF01461B570B0C94F30AAF9291
:10166000BF92CF92DF92EF92FF920F931F93CF938F
:10167000DF936C015B017A0189012417350720F49F
:101680008F2D7901042F182F66EF72E0C6010E949A
:101690001E0BD5011496CD91DC91EC16FD06E0F4FD
:1016A0000C171D0708F4E801D501ED91FC91119785
:1016B000EC0FFD1F108110826D917C916E0D7F1DCE
:1016C000C60161157105A1F00E94140BF50180811E
:1016D0009181C80FD91F1883C601DF91CF911F9147
:1016E0000F91FF90EF90DF90CF90BF90AF90089553
:1016F0000E94CD07EBCF85ED8093BC008091200543
:1017000090912105A0912205B09123050796A11D76
:10171000B11D23E0B695A795979587952A95D1F7A2
:101720002091BC0024FD03C010921E050895409135
:101730002005509121056091220570912305452BCC
:10174000462B472B69F30097A105B10541F02AE22A
:101750002A95F1F700C00197A109B109E1CF809165
:101760001F050C94CA051F920F920FB60F921124F9
:101770000BB60F922F933F934F935F936F937F938B
:101780008F939F93AF93BF93EF93FF9382EA95E07C
:101790000E94CE02FF91EF91BF91AF919F918F91E7
:1017A0007F916F915F914F913F912F910F900BBE61
:1017B0000F900FBE0F901F9018951F920F920FB6AB
:1017C0000F9211240BB60F922F938F939F93EF9349
:1017D000FF93E091B205F091B3058081E091B805E7
:1017E000F091B90582FD1DC090818091BB058F5F8E
:1017F0008F732091BC05821741F0E091BB05F0E0AA
:10180000EE55FA4F958F8093BB05FF91EF919F9115
:101810008F912F910F900BBE0F900FBE0F901F90C6
:1018200018958081F2CF1F920F920FB60F9211245C
:101830000BB60F922F933F934F935F936F937F93CA
:101840008F939F93AF93BF93EF93FF938FE396E0B4
:101850000E94CE02FF91EF91BF91AF919F918F9126
:101860007F916F915F914F913F912F910F900BBEA0
:101870000F900FBE0F901F9018951F920F920FB6EA
:101880000F9211240BB60F922F938F939F93EF9388
:10189000FF93E0914F06F09150068081E09155064C
:1018A000F091560682FD1DC09081809158068F5F91
:1018B0008F7320915906821741F0E0915806F0E0AD
:1018C000E15CF94F958F80935806FF91EF919F91BE
:1018D0008F912F910F900BBE0F900FBE0F901F9006
:1018E00018958081F2CF1F920F920FB60F9211249C
:1018F0002F933F938F939F93AF93BF9380919E05B8
:1019000090919F05A091A005B091A10530914A0545
:1019100023E0230F2D3758F50196A11DB11D20930B
:101920004A0580939E0590939F05A093A005B093D0
:10193000A10580914B0590914C05A0914D05B0916A
:101940004E050196A11DB11D80934B0590934C054A
:10195000A0934D05B0934E05BF91AF919F918F918C
:101960003F912F910F900FBE0F901F90189526E872
:10197000230F0296A11DB11DD2CF1F920F920FB659
:101980000F9211240BB60F922F933F934F935F93B7
:101990006F937F938F939F93AF93BF93EF93FF9337
:1019A00048E251E064E271E090E080E00E94CB0404
:1019B000FF91EF91BF91AF919F918F917F916F9127
:1019C0005F914F913F912F910F900BBE0F900FBEE3
:1019D0000F901F9018951F920F920FB60F9211241F
:1019E0000BB60F922F933F934F935F936F937F9319
:1019F0008F939F93AF93BF93EF93FF9348EA50E089
:101A000064EA70E083E090E00E94CB04FF91EF91E4
:101A1000BF91AF919F918F917F916F915F914F9106
:101A20003F912F910F900BBE0F900FBE0F901F9004
:101A300018951F920F920FB60F9211240BB60F92AA
:101A40002F933F934F935F936F937F938F939F93C6
:101A5000AF93BF93EF93FF9348E950E064E970E0E0
:101A600082E090E00E94CB04FF91EF91BF91AF9193
:101A70009F918F917F916F915F914F913F912F91A6
:101A80000F900BBE0F900FBE0F901F9018951F92D6
:101A90000F920FB60F9211240BB60F922F933F9314
:101AA0004F935F936F937F938F939F93AF93BF9366
:101AB000EF93FF9348E850E064E870E081E090E045
:101AC0000E94CB04FF91EF91BF91AF919F918F91B5
:101AD0007F916F915F914F913F912F910F900BBE2E
:101AE0000F900FBE0F901F9018951F920F920FB678
:101AF0000F9211240BB60F922F933F934F935F9346
:101B00006F937F938F939F93AF93BF93EF93FF93C5
:101B10008091B900887F803609F44DC008F040C03C
:101B2000883209F4A9C028F5803109F49DC0C8F4B1
:101B3000882309F4FBC0883009F496C0FF91EF9127
:101B4000BF91AF919F918F917F916F915F914F91D5
:101B50003F912F910F900BBE0F900FBE0F901F90D3
:101B60001895883109F488C0803241F780931C05AC
:101B700014C0803409F49DC040F48033B9F3883335
:101B8000E9F680931C0585ECB0C0803509F485C06A
:101B9000883509F496C0883489F60E947B0BCECF35
:101BA000883909F48CC038F5883729F050F4883624
:101BB00011F0803719F683E080931E051092F70428
:101BC00057C0883809F47BC0803919F0803809F093
:101BD000B5CF8091F704803208F071C0E091F7042E
:101BE00081E08E0F8093F7048091BB00F0E0E95212
:101BF000FB4F80833DC0803B39F0E0F4803A09F42C
:101C000079C0883A09F09ACF84E080931E0510923B
:101C1000D6041092D504E0915105F0915205199522
:101C20008091D50481110FC081E08093D50410927A
:101C3000B50409C0803C09F4A6CF883C09F4A3CFC1
:101C4000883B09F07BCFE091D60481E08E0F809332
:101C5000D604F0E0EB54FB4F80818093BB00909161
:101C6000D6048091D50429C08091F9048093BB00EB
:101C700085EC8093BC0062CF90911B0580911A0582
:101C8000981758F5E0911B0581E08E0F80931B0596
:101C9000F0E0E650FB4F8081E9CFE0911B0581E049
:101CA0008E0F80931B058091BB00F0E0E650FB4F48
:101CB000808390911B0580911A059817C8F285E8DA
:101CC000D8CFE0911B0581E08E0F80931B0580919A
:101CD000BB00F0E0E650FB4F808380911D05811131
:101CE0005CCF81E08093F80484EA8093BC0010927A
:101CF0001E0524CF85EC8093BC0010921E058091B8
:101D0000F704803230F4E091F704F0E0E952FB4F41
:101D100010826091F70470E0E0914F05F09150055A
:101D200087ED94E019951092F70408CF10921C05E6
:101D300034CF1092A5051092A40588EE93E0A0E0A0
:101D4000B0E08093A6059093A705A093A805B09353
:101D5000A9052CE232E03093A3052093A2054DECB7
:101D600050E05093AF054093AE054CEC50E05093DB
:101D7000B1054093B00548EC50E05093B305409353
:101D8000B20549EC50E05093B5054093B4054AECD8
:101D900050E05093B7054093B6054EEC50E0509399
:101DA000B9054093B8051092BB051092BC0510927E
:101DB000BD051092BE051092420610924106809316
:101DC000430690934406A0934506B093460630938D
:101DD000400620933F0625EC30E030934C062093DC
:101DE0004B0624EC30E030934E0620934D0620EC59
:101DF00030E03093500620934F0621EC30E03093D2
:101E000052062093510622EC30E030935406209382
:101E1000530626EC30E03093560620935506109278
:101E200058061092590610925A0610925B061092AC
:101E3000DF061092DE068093E0069093E106A09301
:101E4000E206B093E3068EE392E09093DD06809382
:101E5000DC0610928B0710928A0780E592E090933F
:101E600089078093880787E280938C0780E18093BD
:101E7000910782E0809392071092930780917807F0
:101E80008033F0F491E0980F909378078093850762
:101E900090E0FC01EE0FFF1FE80FF91FE851F94F2A
:101EA00088EB9BE09283818367EF72E08FE797E096
:101EB0000E941E0B66EF72E089E797E00C941E0B00
:101EC0008FEF80938507F0CFCF93DF93CDB7DEB749
:101ED000C75AD1090FB6F894DEBF0FBECDBF7894B4
:101EE00084B5826084BD84B5816084BD85B582601F
:101EF00085BD85B5816085BD80916E0081608093D0
:101F00006E00109281008091810082608093810038
:101F10008091810081608093810080918000816048
:101F2000809380008091B10084608093B1008091A3
:101F3000B00081608093B0008091910082608093B6
:101F40009100809191008160809391008091900038
:101F50008160809390008091A10082608093A100B5
:101F60008091A10081608093A1008091A000816098
:101F70008093A00080912101826080932101809153
:101F800021018160809321018091200181608093F3
:101F9000200180917A00846080937A0080917A0099
:101FA000826080937A0080917A00816080937A00C9
:101FB00080917A00806880937A001092C1008FE34C
:101FC00096E00E94810182EA95E00E94810110E181
:101FD000C12E12E0D12ED6011C91B2E0CB0ED11C45
:101FE00061E0812F0E94430460E0812F0E9415046C
:101FF000E8E2CE16E2E0DE0671F761E08AE00E94D8
:10200000430461E08BE00E94430461E08CE00E94A5
:10201000430461E089E00E94430460E089E00E949B
:10202000150462E087E00E944304809185078033B5
:1020300008F052C061E088E00E9443048091850767
:10204000282F30E0F901EE0FFF1FE20FF31FE851D8
:10205000F94F9081907C986090831092860710923F
:1020600087072CE0622F0E947B19829FB001112408
:1020700030E020E0AB01420F531FFA01EE0FFF1FCB
:10208000E40FF51FE851F94F908196FD17C02F5FBF
:102090003F4F2C30310571F7813009F0A2C1109209
:1020A000800082E08093810010928500109284006D
:1020B000B19A80916F00826080936F00E0918507F4
:1020C0008E2F90E0FC01EE0FFF1FE80FF91FE85183
:1020D000F94F8081806480831092780590E080E0E1
:1020E0000E94A801109256051092550510925405B1
:1020F000109253050E94AC058DE092E0909352053A
:10210000809351058EE092E09093500580934F05A7
:1021100010928D0780919207823018F098E090938A
:102120008D078093900762E370E080E090E00E946A
:1021300099046091930788E897E00E94710668EE21
:1021400073E080E090E00E94990460E388E897E003
:102150000E945B070BE416E4C8010197F1F760E306
:1021600088E897E00E945B07C8010197F1F760E3F8
:1021700088E897E00E945B0783E592E00197F1F71A
:1021800060E288E897E00E945B0760918D076062DB
:1021900040E088E897E00E94740784E080938E070F
:1021A00040E06CE088E897E00E9474070E94BC075A
:1021B00082E080938F0740E066E088E897E00E9425
:1021C000740740E062E088E897E00E9474078BE3C0
:1021D0009FE10197F1F788E08093930760E088E83A
:1021E00097E00E9471060E94BC0784E293E00E947F
:1021F0004F090E948B0785E393E00E944F0960ED31
:1022000077E080E090E00E9499048DE790E00E94E2
:1022100002198B3A09F011C10E94BC0782E493E0D5
:102220000E944F090E948B0782E593E00E944F09AC
:102230006CED75E080E090E00E94990461E08AE036
:102240000E94150460E08CE00E9415040E94BC0707
:1022500082E693E00E944F090E948B0780E793E09B
:102260000E944F096DE773E08FE396E00E94B60984
:102270006DE773E082EA95E00E94B609BB24B3944F
:102280008E01015C1F4F8FE396E00E94AE0218168C
:1022900019060CF082C08FE396E00E944C028A304F
:1022A00019F08D3009F05DC540917D0750917E0792
:1022B0004115510509F471C0CE55DF4F19821882BE
:1022C000C25AD040CC55DF4F19821882C45AD04030
:1022D000CA55DF4F19821882C65AD04060917907DB
:1022E00070917A076115710529F0CE018E559F4FC7
:1022F0000E94F30ACE018E559F4F0E94E309CA55F2
:10230000DF4F88819981C65AD040892BD9F163E883
:1023100073E0CE0101960E941E0BBE016F5F7F4FDE
:10232000CE018E559F4F0E945B0AF82ECE0101967A
:102330000E94DF07F11026C066E873E0CE01019627
:102340000E941E0BBE016F5F7F4FCE018E559F4FC7
:102350000E94E707F82ECE0101960E94DF07FF20BA
:1023600009F471C161E08CE00E9415040E94BC0771
:1023700085E993E00E944F090E948B0784EA93E06D
:102380000E944F09CE018E559F4F0E94DF0766EFD6
:1023900072E089E797E00E94140B82EA95E00E94C0
:1023A000AE02181619060CF067C566EF72E0CE0192
:1023B00083589F4F0E941E0B0E94600297FDDDC450
:1023C0008A30910509F4D9C489831A8241E050E02A
:1023D000BE016F5F7F4FCE0183589F4F0E949E0AC0
:1023E000EBCF823061F410929000809391001092B4
:1023F00095001092940088BB809371005FCE83306B
:1024000069F41092A00082E08093A1001092A500D0
:102410001092A40089BB8093720050CE81114ECEE1
:102420001092200182E080932101109225011092E8
:1024300024018ABB8093730041CE81E0EE968FAF7A
:10244000EE9781E4C657DF4F8883CA58D04068E5CD
:1024500072E08DE790E08C0F9D1F0E960E94AF1BDF
:10246000EDE7F0E0EC0FFD1F31968DE790E08C0F6B
:102470009D1F0D9621E021938E179F07E1F76F9620
:102480001FAE6F978FE4AC968FAFAC9764E772E0A6
:102490008EE590E08C0F9D1F0E960E94AF1BEEE51F
:1024A000F0E0EC0FFD1F31968EE590E08C0F9D1F44
:1024B0000D961192E817F907E1F71FAE8FE42D96FC
:1024C0008FAF2D9763E972E08FE390E08C0F9D1F33
:1024D0000E960E94AF1BEFE3F0E0EC0FFD1F31966C
:1024E0008FE390E08C0F9D1F0D9611928E179F0722
:1024F000E1F781E088A386E48DA76DEA72E0CE0162
:102500008E960E94AF1BFE01B196CE018D9621E002
:102510002193E817F907E1F719828FE48E876BECB6
:1025200072E0CE010F960E94AF1BFE013296CE01E3
:102530000E9611928E179F07E1F72DB73EB72F51D8
:1025400031090FB6F8943EBF0FBE2DBFADB7BEB771
:1025500011968FE1FE01E358FF4F01900D928A958D
:10256000E1F790E080E00E9486088DB79EB74F9714
:102570000FB6F8949EBF0FBE8DBFADB7BEB7119614
:102580008FE1FE01E25AFF4F01900D928A95E1F72B
:1025900089E190E00E948608ADB7BEB7DE960FB61F
:1025A000F894DEBF0FBECDBFEDB7FEB77F970FB675
:1025B000F894FEBF0FBEEDBF5E978FE1FE01FF9660
:1025C00001900D928A95E1F782E390E00E948608DF
:1025D0002DB73EB72F5131090FB6F8943EBF0FBE4D
:1025E0002DBFADB7BEB711968FE1FE01B096019039
:1025F0000D928A95E1F78BE490E00E9486080FB671
:10260000F894DEBF0FBECDBFADB7BEB75F970FB6B4
:10261000F894BEBF0FBEADBF11968FE1FE0131969B
:1026200001900D928A95E1F784E690E00E94860879
:102630006BEA8DE790E00E940A190FB6F894DEBFAE
:102640000FBECDBFFBCD65EB73E0CE0101960E94BE
:102650001E0BBE016F5F7F4FCE018E559F4F0E94B4
:10266000E707F82ECE0101960E94DF07FF2069F0F0
:10267000B09277051092760560E08CE00E94150418
:102680000E94BC078EEB93E07BCE6CEC73E0CE0136
:1026900001960E941E0BBE016F5F7F4FCE018E55CB
:1026A0009F4F0E94E707E82ECE0101960E94DF07A8
:1026B000F0907705EE2009F463C0FF2009F45DC0B7
:1026C00080917605811159C080910002909101029C
:1026D0008F3F980701F12DB73EB72F5131090FB643
:1026E000F8943EBF0FBE2DBFADB7BEB711962FE118
:1026F000E7E5F5E001900D922A95E1F70E94860842
:102700008FEF9FEF90930102809300020FB6F89431
:10271000DEBF0FBECDBF6BEA8DE790E00E940A19C5
:1027200063E0E62EF12C61E08BE00E9415046CE280
:1027300071E080E090E00E94990460E08BE00E94EC
:1027400015046CE271E080E090E00E94990491E051
:10275000E91AF10841F70E94BC0785ED93E00E9459
:102760004F0960ED77E080E090E00E9499040E94BC
:10277000BC0782E693E00E944F091092770502CED3
:10278000FF2009F4FFCDC456DF4F19821882CC59BF
:10279000D040C256DF4F19821882CE59D040C05661
:1027A000DF4F19821882C05AD040CE55DF4F688162
:1027B0007981C25AD0406115710559F0CA55DF4F71
:1027C00048815981C65AD040CE0184569F4F0E94FD
:1027D000F30ACE0184569F4F0E94E30965EE73E031
:1027E000CE0101960E941E0BBE016F5F7F4FCE018E
:1027F00084569F4F0E94E707EF2C811153C061EF71
:1028000073E0CE0180960E941E0BBE01605E7F4F7A
:10281000CE0184569F4F0E94E70781113FC06FEFA2
:1028200073E0C8010E941E0BB801CE0184569F4F71
:102830000E94E70781112FC06AE074E0CE01825A3E
:102840009F4F0E941E0BBE01625A7F4FCE018456DD
:102850009F4F0E94E707811119C068E174E0CE0123
:1028600083589F4F0E941E0BBE0163587F4FCE01BD
:1028700084569F4F0E94E707EE24E394811101C024
:10288000E12CCE0183589F4F0E94DF07CE01825A70
:102890009F4F0E94DF07C8010E94DF07CE0180968C
:1028A0000E94DF07CE0101960E94DF07809100029F
:1028B00090910102EE2009F4A4C08F3F9807C9F05F
:1028C000EDB7FEB77F970FB6F894FEBF0FBEEDBF12
:1028D000ADB7BEB711962FE1E7E5F5E001900D9297
:1028E0002A95E1F70E9486080FB6F894DEBF0FBE66
:1028F000CDBF8FE1E7E5F5E0DF011D928A95E9F7AD
:1029000065EE73E0CE0101960E941E0BBE016F5F63
:102910007F4FCE0184569F4F0E94E707F82ECE01CD
:1029200001960E94DF07FF2051F0109201021092E1
:102930000002CE0184569F4F0E94DF0723CD61EF36
:1029400073E0CE0101960E941E0BBE016F5F7F4FA8
:10295000CE0184569F4F0E94E707F82ECE010196C4
:102960000E94DF0789E190E0F11046C06FEF73E04D
:10297000CE0101960E941E0BBE016F5F7F4FCE01FC
:1029800084569F4F0E94E707F82ECE0101960E94C1
:10299000DF0782E390E0F1102FC06AE074E0CE011F
:1029A00001960E941E0BBE016F5F7F4FCE018456C1
:1029B0009F4F0E94E707F82ECE0101960E94DF0785
:1029C0008BE490E0F11018C068E174E0CE0101964C
:1029D0000E941E0BBE016F5F7F4FCE0184569F4F3A
:1029E0000E94E707F82ECE0101960E94DF07FF2024
:1029F00009F49FCF84E690E0909301028093000257
:102A000098CF019609F495CF64E274E0CE01019667
:102A10000E941E0BBE016F5F7F4FCE0184569F4FF9
:102A20000E945B0AE82ECE0101960E94DF07EE208D
:102A300009F440C063E674E0CE0101960E941E0BCB
:102A4000BE016F5F7F4FCE0184569F4F0E94400AA8
:102A5000C056DF4F28813981C05AD040AC014F5F4A
:102A60005F4FBE0164567F4FCE0180960E942F0BB0
:102A7000CE0101960E94DF07CE0180960E94E309F5
:102A800064EB72E0CE0101960E941E0BBE016F5FE7
:102A90007F4FCE0180960E94E70791E0811101C02F
:102AA00090E090935705CE0101960E94DF07CE017A
:102AB000809694C060E374E0CE0101960E941E0BE4
:102AC000BE016F5F7F4FCE0184569F4F0E945B0A0D
:102AD000811117C067E374E0CE0180960E941E0B3F
:102AE000BE01605E7F4FCE0184569F4F0E945B0AFD
:102AF000FF24F394811101C0F12CCE0180960E9435
:102B0000DF07CE0101960E94DF07FF2009F469C0AC
:102B100063E674E0CE0101960E941E0BBE016F5F5A
:102B20007F4FCE0184569F4F0E94400AC056DF4F10
:102B300028813981C05AD040AC014F5F5F4FBE0140
:102B400064567F4FC8010E942F0BCE0101960E9450
:102B5000DF07C8010E94E3096DE374E0CE0101962E
:102B60000E941E0BBE016F5F7F4FC8010E94E707E6
:102B7000E82ECE0101960E94DF0781E4E1102BC010
:102B800064EB72E0CE0101960E941E0BBE016F5FE6
:102B90007F4FC8010E94E707811115C06AE474E005
:102BA000CE0180960E941E0BBE01605E7F4FC80161
:102BB0000E94E707FF24F394811101C0F12CCE019C
:102BC00080960E94DF07CE0101960E94DF0786E40F
:102BD000F11001C08FE480936405C8010E94DF07F3
:102BE000A8CE65E574E0CE0101960E941E0BBE01E1
:102BF0006F5F7F4FCE0184569F4F0E945B0AF82E75
:102C0000CE0101960E94DF07FF2009F492CE63E611
:102C100074E0CE0101960E941E0BBE016F5F7F4FD4
:102C2000CE0184569F4F0E94400AC056DF4F288134
:102C30003981C05AD040AC014F5F5F4FBE0164562E
:102C40007F4FCE0180960E942F0BCE0101960E94ED
:102C5000DF07CE0180960E94E30965E674E0CE01AD
:102C600001960E941E0BBE016F5F7F4FCE018096C2
:102C70000E945B0AF82ECE0101960E94DF07FF201A
:102C8000B1F02CA13DA141E050E0BE01605E7F4F5C
:102C9000CE0101960E942F0BBE016F5F7F4FCE01C8
:102CA00080960E943408CE0101960E94DF0765E6F7
:102CB00074E0CE0101960E941E0B2CA13DA14D8116
:102CC0005E8124173507A0F088A199A1009781F0B3
:102CD00069817A816115710559F0241B350B820FCA
:102CE000931F0E94A61BEE24E394892B09F0E12C8C
:102CF000CE0101960E94DF07EE20C1F02CA13DA17C
:102D00002150310950E040E0BE01605E7F4FCE01AE
:102D100001960E942F0BBE016F5F7F4FCE01809600
:102D20000E943408CE0101960E94DF07ECA0FDA0AE
:102D3000E114F10419F410926505B9CEE0E1EE1644
:102D4000F10418F050E1E52EF12C68A179A1A7015A
:102D500085E695E00E94C41BF701EB59FA4F1082FB
:102D6000A6CE89831A8241E050E0BE016F5F7F4F9B
:102D700089E797E00E949E0A10CBCE0183589F4FAF
:102D80000E94E309CF57DF4F48815981C158D04095
:102D90004115510509F46BC0A0961FAE1EAEA09759
:102DA000A2961FAE1EAEA297A4961FAE1EAEA4970B
:102DB000EF966EAD7FADEF976115710529F0CE01ED
:102DC000825A9F4F0E94F30ACE01825A9F4F0E945F
:102DD000E309A096EEACFFACA097E114F10471F00A
:102DE000D7018D917D01882349F0082E000C990BA5
:102DF0000E94951BF70131978083F2CF60E08CE051
:102E00000E94150465EE73E0CE01825A9F4F0E9426
:102E10001F08882309F4BBC06EE572E08FE797E0D6
:102E20000E94140B90E080E00E94F20860917F0500
:102E300089E00E9415040E9454096EE674E0CE01F8
:102E400001960E941E0B6FE777E0CE0101960E946B
:102E5000E00ABC0182EA95E00E94CA09CE0101960F
:102E60000E94DF07CE01825A9F4F0E94DF07CE01EA
:102E700083589F4F0E94DF070E94F103EE24E394E2
:102E8000009709F4E12C892B69F180917905811172
:102E900029C062E370E080E090E00E9499040E9403
:102EA000F1030197F9F4F0907805FB24F09278058E
:102EB0008AE590E0F11002C090E080E00E94A80155
:102EC0000E94BC0787E093E0F11002C084E193E028
:102ED0000E944F0968EE73E080E090E00E94990440
:102EE0000E945409E092790580918C05813409F0A3
:102EF00050C12FB7F89480919E0590919F05A091A5
:102F0000A005B091A1052FBF40917B0550917C0594
:102F100060917D0570917E053C014D01641A750A32
:102F2000860A970AB401A301443F51406105710527
:102F300028F180937B0590937C05A0937D05B09349
:102F40007E05A0907A057A2C7B2470927A0520E188
:102F5000822E22E0922EF12CE12C672DE0FC6A2DCE
:102F6000D4018C91B2E08B0E911C0E941504EFEFFE
:102F7000EE1AFE0AFCE0EF16F10479F76AE070E061
:102F800080E090E00E9499040E945D037CC961EF9B
:102F900073E0CE01825A9F4F0E941F08882349F098
:102FA0006AE772E08FE797E00E94140B89E190E0F6
:102FB0003BCF6FEF73E0CE01825A9F4F0E941F08F4
:102FC000882349F069E972E08FE797E00E94140BCB
:102FD00082E390E029CF6AE074E0CE01825A9F4FED
:102FE0000E941F08882349F06FE972E08FE797E09D
:102FF0000E94140B8BE490E017CF68E174E0CE01DF
:10300000825A9F4F0E941F08882349F06FEB72E09D
:103010008FE797E00E94140B84E690E005CF67E607
:1030200074E0CE01825A9F4F0E941F08882309F442
:1030300091C080917F0544EBE42E42E0F42E811193
:1030400004C032EDE32E32E0F32E6EE674E0CE01E2
:1030500001960E941E0B6FE777E0CE0101960E9459
:10306000E00A65E774E00E94CA0AB7010E94CA0A32
:10307000F8011182108223961FAE1EAE239725966B
:103080001FAE1EAE25978017910769F0DC016D9188
:103090007C9111976115710531F014964D915C91F9
:1030A000C8010E94F30ACE0101960E94DF078091B9
:1030B00078056EEF72E0811102C062E073E0CE012C
:1030C00001960E941E0B6CE774E0CE0180960E9470
:1030D0001E0BBE016F5F7F4FCE0180960E94E00AFB
:1030E000FC014481558160817181C8010E949E0A62
:1030F000CE0180960E94DF07CE0101960E94DF0775
:10310000B8018FE396E00E94CA09B80182EA95E00F
:103110000E94CA090E94BC0785E894E00E944F09FA
:103120000E948B07409183075091840760917F072D
:103130007091800788E897E00E94100260ED77E0C8
:1031400080E090E00E9499040E945409C8010E9406
:10315000DF0788CE61E08CE00E9415040E94BC0766
:103160008FED92E00E944F090E948B0786EE92E05D
:103170000E944F096DE874E082EA95E00E94B6096A
:1031800060ED77E080E090E00E9499040E9454098D
:1031900069CE863481F490E1E92E92E0F92ED701D0
:1031A0008C91B2E0EB0EF11C61E00E941504CE148C
:1031B000DF04A9F7E3CE8F3409F0E0CE80E1E82EFA
:1031C00082E0F82EF7018081F2E0EF0EF11C60E062
:1031D0000E941504CE14DF04A9F7D0CE89E797E04A
:1031E0000E94DF078FE797E00C94DF0791110C94A2
:1031F000FF18803219F089508550C8F70895992733
:1032000088270895F999FECF92BD81BDF89A992734
:1032100080B50895262FF999FECF1FBA92BD81BDC2
:1032200020BD0FB6F894FA9AF99A0FBE0196089548
:10323000052E97FB1EF400940E942F1957FD07D00E
:103240000E944A1907FC03D04EF40C942F19509594
:103250004095309521953F4F4F4F5F4F0895909582
:103260008095709561957F4F8F4F9F4F08950E9475
:103270006C19A59F900DB49F900DA49F800D911D7A
:1032800011240895B7FF0C9437190E943719821B37
:10329000930B0895A1E21A2EAA1BBB1BFD010DC0C2
:1032A000AA1FBB1FEE1FFF1FA217B307E407F507F6
:1032B00020F0A21BB30BE40BF50B661F771F881FD2
:1032C000991F1A9469F760957095809590959B0168
:1032D000AC01BD01CF010895A29FB001B39FC00111
:1032E000A39F700D811D1124911DB29F700D811D32
:1032F0001124911D0895991B79E004C0991F961718
:1033000008F0961B881F7A95C9F780950895EE0FEF
:10331000FF1F881F8BBF0790F691E02D19940F9324
:103320001F93CF93DF938230910510F482E090E0F9
:10333000E0919607F091970730E020E0B0E0A0E040
:10334000309799F42115310509F44AC0281B390B2F
:1033500024303105D8F58A819B816115710589F189
:10336000FB0193838283FE0111C040815181028160
:10337000138148175907E0F04817590799F4109737
:1033800061F012960C93129713961C933296CF010C
:10339000DF91CF911F910F9108950093960710939D
:1033A0009707F4CF2115310551F04217530738F034
:1033B000A901DB019A01BD01DF01F801C1CFEF01D5
:1033C000F9CF9093970780939607CDCFFE01E20F38
:1033D000F31F819391932250310939832883D7CFEA
:1033E0002091940730919507232B41F420910402FA
:1033F00030910502309395072093940720910202A3
:10340000309103022115310541F42DB73EB74091AB
:10341000060250910702241B350BE0919407F091AE
:103420009507E217F307A0F42E1B3F0B2817390767
:1034300078F0AC014E5F5F4F2417350748F04E0F10
:103440005F1F5093950740939407819391939FCF6B
:10345000F0E0E0E09CCFCF93DF930097E9F0FC0130
:10346000329713821282A0919607B0919707ED01CF
:1034700030E020E01097A1F420813181820F931F6A
:1034800020919407309195072817390709F061C0FA
:10349000F0939507E0939407DF91CF910895EA01A7
:1034A000CE17DF07E8F54A815B819E014115510582
:1034B000B1F7E901FB83EA8349915991C40FD51F04
:1034C000EC17FD0761F4808191810296840F951FAE
:1034D000E90199838883828193819B838A83F0E0C9
:1034E000E0E012968D919C9113970097B9F52D917C
:1034F0003C911197CD010296820F931F2091940762
:10350000309195072817390739F6309751F5109201
:10351000970710929607B0939507A0939407BCCF96
:10352000D383C28340815181840F951FC817D90767
:1035300061F44E5F5F4F88819981480F591F518315
:1035400040838A819B81938382832115310509F011
:10355000B0CFF0939707E09396079ECFFD01DC0173
:10356000C0CF13821282D7CF4F925F926F927F9219
:103570008F929F92AF92BF92CF92DF92EF92FF9283
:103580000F931F93CF93DF938C01009799F4CB0196
:10359000DF91CF911F910F91FF90EF90DF90CF902F
:1035A000BF90AF909F908F907F906F905F904F9063
:1035B0000C948F19FC01E60FF71F9C012250310972
:1035C000E217F30708F4AEC0D901CD91DC91119751
:1035D000C617D70720F1C530D10578F0CE01049782
:1035E0008617970750F0C61BD70B2297C193D1932C
:1035F0006D937C93CF010E942B1AC801DF91CF916C
:103600001F910F91FF90EF90DF90CF90BF90AF9000
:103610009F908F907F906F905F904F9008955B0187
:10362000AC1ABD0A4C018C0E9D1EA0919607B0915C
:103630009707512C412CF12CE12C109731F58091FA
:103640009407909195078815990509F05CC0461676
:10365000570608F058C0809102029091030200972B
:1036600041F48DB79EB74091060250910702841B2A
:10367000950BE817F90708F055C0F0939507E0930C
:103680009407F90171836083B8CF8D919C91119754
:1036900012966C90129713967C901397A815B90503
:1036A00059F56C0142E0C40ED11CCA14DB0420F1B0
:1036B000AC014A195B09DA011296159780F0628213
:1036C000738251834083D9016D937C93E114F1049B
:1036D00071F0D7011396FC93EE9312978ECF22963A
:1036E0008C0F9D1FF90191838083F301EFCFF0933D
:1036F0009707E093960781CF4816590608F42C01E6
:103700007D01D3019ACFCB010E948F197C010097D4
:1037100049F0AE01B8010E949D1BC8010E942B1AFE
:1037200087016BCF10E000E068CF911108958154BC
:103730008A5108F4805E855A0895FB01DC0102C0BD
:1037400001900D9241505040D8F70895FB01DC01E3
:103750008D91019080190110D9F3990B0895FB0107
:10376000DC0101900D920020E1F70895FB01DC01DE
:103770004150504030F08D910190801919F4002093
:10378000B9F7881B990B0895FB01DC0141505040AB
:1037900048F001900D920020C9F701C01D924150E0
:1037A0005040E0F70895FB0151915523A9F0BF0166
:1037B000DC014D9145174111E1F759F4CD0101901C
:1037C000002049F04D9140154111C9F3FB01411111
:1037D000EFCF81E090E00197089511E0CDE4D1E0D2
:1037E00000E006C0802FFE010E9487192196011D6E
:0E37F000CE34D10780E00807A9F7F894FFCF88
:1037FE00FFFF0000980780000000400014005400F6
:10380E0016001700180019001A001B001C001D00DE
:10381E001E001F002000210000000000F002100218
:10382E003D023D03AE024C02A00200000000420623
:10383E0015065807EB050E06FB05EC05000000000B
:10384E00C707100258070F024D6F646F3A204649A2
:10385E0045535441004169723A4F4E204C45443A0B
:10386E00416C74004D6F646F3A2052454C414A4191
:10387E00444F004169723A4F4646204C45443A4FF8
:10388E004646004D6F646F3A204E4F434845004503
:10389E004E43454E4445525F544F444F004C4544B1
:1038AE0027533A204F4E004169723A204F4E004145
:1038BE0050414741525F544F444F004C45442753AB
:1038CE003A204F4646004169723A204F464600451F
:1038DE0052524F523A004D6F646F20696E76616C92
:1038EE0069646F000D0A00494E4943494F00414239
:1038FE00520043455252005075657274613A204130
:10390E00425245005075657274613A2043455252D9
:10391E00414441004341534120494E54454C49478F
:10392E00454E544500496E696369616E646F2E2E73
:10393E002E0043617267616E646F20636F6E6669FD
:10394E006700646573646520454550524F4D2E2EB9
:10395E002E0053697374656D61204C6973746F002A
:10396E004573706572616E646F2E2E2E0052454146
:10397E004459002F2F004552524F525F53494E5417
:10398E0041584953004552524F522053494E5441CB
:10399E0058495300566572206172636869766F20CC
:1039AE002E6F726700636F6E665F696E69004361AA
:1039BE007267616E646F202E6F726700636F6E6642
:1039CE003A66696E00436F6E66696720677561724D
:1039DE0064616461006D6F646F5F666965737461C5
:1039EE00006D6F646F5F72656C616A61646F006D0C
:1039FE006F646F5F6E6F63686500656E63656E649E
:103A0E0065725F746F646F006170616761725F747D
:103A1E006F646F0056656E74696C61646F723A0004
:103A2E004C454427533A004C4544533A00416C747C
:103A3E0065726E616E646F736500456E63656E646C
:103A4E0069646F73004D656E73616A6520656E20E3
:103A5E004C43443A00220065737461646F004D6FED
:103A6E00646F3A20002056656E743A0020507565DA
:103A7E007274613A0045737461646F3A00457272F4
:043A8E006F72000053
:00000001FF
